:020000040800F2
:1000000000500020F91300086D1300087513000854
:100010007D130008851300088D1300080000000000
:100020000000000000000000000000009513000820
:10003000A113000800000000AD130008B913000868
:10004000411400084114000841140008411400083C
:10005000411400084114000841140008411400082C
:10006000411400084114000841140008411400081C
:10007000411400084114000841140008411400080C
:1000800041140008411400084114000841140008FC
:1000900041140008411400084114000841140008EC
:1000A000411400084114000841140008C513000859
:1000B000D913000841140008411400084114000835
:1000C00041140008411400084114000841140008BC
:1000D00041140008411400084114000841140008AC
:1000E00041140008411400084114000800000000F9
:1000F0000000000000000000000000000000000000
:0C01000000000000000000005FF808F1A3
:1001100010B5054C237833B9044B13B10448AFF341
:1001200000800123237010BD0C000020000000009F
:100130003435000808B5034B1BB103490348AFF33E
:10014000008008BD000000001000002034350008C9
:1001500081F0004102E000BF83F0004330B54FEA78
:1001600041044FEA430594EA050F08BF90EA020FE5
:100170001FBF54EA000C55EA020C7FEA645C7FEA78
:10018000655C00F0E2804FEA5454D4EB5555B8BF9B
:100190006D420CDD2C4480EA020281EA030382EA0C
:1001A000000083EA010180EA020281EA0303362D9E
:1001B00088BF30BD11F0004F4FEA01314FF4801C71
:1001C0004CEA113102D0404261EB410113F0004F83
:1001D0004FEA03334CEA133302D0524263EB43033A
:1001E00094EA050F00F0A780A4F10104D5F1200ED8
:1001F0000DDB02FA0EFC22FA05F2801841F1000133
:1002000003FA0EF2801843FA05F359410EE0A5F106
:1002100020050EF1200E012A03FA0EFC28BF4CF037
:10022000020C43FA05F3C01851EBE37101F00045ED
:1002300007D54FF0000EDCF1000C7EEB00006EEBFA
:100240000101B1F5801F1BD3B1F5001F0CD3490884
:100250005FEA30004FEA3C0C04F101044FEA4452DB
:1002600012F5800F80F09A80BCF1004F08BF5FEA62
:10027000500C50F1000041EB045141EA050130BD42
:100280005FEA4C0C404141EB0101013C28BFB1F554
:10029000801FE9D291F0000F04BF01460020B1FA9F
:1002A00081F308BF2033A3F10B03B3F120020CDA72
:1002B0000C3208DD02F1140CC2F10C0201FA0CF050
:1002C00021FA02F10CE002F11402D8BFC2F1200CB5
:1002D00001FA02F120FA0CFCDCBF41EA0C0190406B
:1002E000E41AA2BF01EB0451294330BD6FEA0404B4
:1002F0001F3C1CDA0C340EDC04F11404C4F120029F
:1003000020FA04F001FA02F340EA030021FA04F3B0
:1003100045EA030130BDC4F10C04C4F1200220FA07
:1003200002F001FA04F340EA0300294630BD21FA45
:1003300004F0294630BD94F0000F83F4801306BF0B
:1003400081F480110134013D4EE77FEA645C18BFFF
:100350007FEA655C29D094EA050F08BF90EA020F96
:1003600005D054EA000C04BF1946104630BD91EA8E
:10037000030F1EBF0021002030BD5FEA545C05D191
:100380004000494128BF41F0004130BD14F58004D0
:100390003CBF01F5801130BD01F0004545F0FE4144
:1003A00041F470014FF0000030BD7FEA645C1ABF79
:1003B000194610467FEA655C1CBF0B46024650EAB0
:1003C000013406BF52EA033591EA030F41F40021DC
:1003D00030BD00BF90F0000F04BF0021704730B562
:1003E0004FF4806404F132044FF000054FF0000137
:1003F00050E700BF90F0000F04BF0021704730B5F8
:100400004FF4806404F1320410F0004548BF4042CC
:100410004FF000013EE700BF42004FEAE2014FEA21
:1004200031014FEA02701FBF12F07F4393F07F4FFC
:1004300081F06051704732F07F4208BF704793F0FF
:100440007F4F04BF41F40021704730B54FF4607412
:1004500001F0004521F000411CE700BF50EA010215
:1004600008BF704730B54FF000050AE050EA0102BE
:1004700008BF704730B511F0004502D5404261EB2E
:1004800041014FF4806404F132045FEA915C3FF46F
:10049000D8AE4FF003025FEADC0C18BF03325FEA0C
:1004A000DC0C18BF033202EBDC02C2F1200300FABD
:1004B00003FC20FA02F001FA03FE40EA0E0021FAE2
:1004C00002F11444BDE600BF70B54FF0FF0C4CF4D0
:1004D000E06C1CEA11541DBF1CEA135594EA0C0F82
:1004E00095EA0C0F00F0DEF82C4481EA030621EABD
:1004F0004C5123EA4C5350EA013518BF52EA0335F8
:1005000041F4801143F4801338D0A0FB02CE4FF0A9
:100510000005E1FB02E506F00042E0FB03E54FF0D9
:100520000006E1FB03569CF0000F18BF4EF0010ED1
:10053000A4F1FF04B6F5007F64F5407404D25FEACD
:100540004E0E6D4146EB060642EAC62141EA555180
:100550004FEAC52040EA5E504FEACE2EB4F1FD0CC2
:1005600088BFBCF5E06F1ED8BEF1004F08BF5FEA40
:10057000500E50F1000041EB045170BD06F00046F2
:1005800046EA010140EA020081EA0301B4EB5C049F
:10059000C2BFD4EB0C0541EA045170BD41F4801197
:1005A0004FF0000E013C00F3AB8014F1360FDEBFBC
:1005B000002001F0004170BDC4F10004203C35DA98
:1005C0000C341BDC04F11404C4F1200500FA05F31B
:1005D00020FA04F001FA05F240EA020001F00042BC
:1005E00021F0004110EBD37021FA04F642EB060132
:1005F0005EEA430E08BF20EAD37070BDC4F10C045C
:10060000C4F1200500FA04F320FA05F001FA04F21F
:1006100040EA020001F0004110EBD37041F100010B
:100620005EEA430E08BF20EAD37070BDC4F1200516
:1006300000FA05F24EEA020E20FA04F301FA05F27E
:1006400043EA020321FA04F001F0004121FA04F226
:1006500020EA020000EBD3705EEA430E08BF20EAF6
:10066000D37070BD94F0000F0FD101F00046400030
:1006700041EB010111F4801F08BF013CF7D041EAB2
:10068000060195F0000F18BF704703F000465200B6
:1006900043EB030313F4801F08BF013DF7D043EA87
:1006A0000603704794EA0C0F0CEA135518BF95EA3D
:1006B0000C0F0CD050EA410618BF52EA4306D1D1C4
:1006C00081EA030101F000414FF0000070BD50EAE3
:1006D000410606BF1046194652EA430619D094EA6D
:1006E0000C0F02D150EA013613D195EA0C0F05D157
:1006F00052EA03361CBF104619460AD181EA0301AB
:1007000001F0004141F0FE4141F470014FF0000062
:1007100070BD41F0FE4141F4780170BD70B54FF0FD
:10072000FF0C4CF4E06C1CEA11541DBF1CEA13557D
:1007300094EA0C0F95EA0C0F00F0A7F8A4EB05045F
:1007400081EA030E52EA03354FEA013100F0888056
:100750004FEA03334FF0805545EA131343EA12631F
:100760004FEA022245EA111545EA10654FEA0026D4
:100770000EF000419D4208BF964244F1FD0404F58D
:10078000407402D25B084FEA3202B61A65EB0305E9
:100790005B084FEA32024FF480104FF4002CB6EBA6
:1007A000020E75EB030E22BFB61A754640EA0C0026
:1007B0005B084FEA3202B6EB020E75EB030E22BF66
:1007C000B61A754640EA5C005B084FEA3202B6EBA7
:1007D000020E75EB030E22BFB61A754640EA9C0066
:1007E0005B084FEA3202B6EB020E75EB030E22BF36
:1007F000B61A754640EADC0055EA060E18D04FEAF4
:10080000051545EA16754FEA06164FEAC30343EA93
:1008100052734FEAC2025FEA1C1CC0D111F4801F60
:100820000BD141EA00014FF000004FF0004CB6E759
:1008300011F4801F04BF01430020B4F1FD0C88BFF8
:10084000BCF5E06F3FF6AFAEB5EB030C04BFB6EB03
:10085000020C5FEA500C50F1000041EB045170BDF6
:100860000EF0004E4EEA113114EB5C04C2BFD4EB23
:100870000C0541EA045170BD41F480114FF0000EA7
:10088000013C90E645EA060E8DE60CEA135594EA23
:100890000C0F08BF95EA0C0F3FF43BAF94EA0C0F26
:1008A0000AD150EA01347FF434AF95EA0C0F7FF49B
:1008B00025AF104619462CE795EA0C0F06D152EAEF
:1008C00003353FF4FDAE1046194622E750EA4106D3
:1008D00018BF52EA43067FF4C5AE50EA41047FF4E4
:1008E0000DAF52EA43057FF4EBAE12E74A0011D296
:1008F00012F5001211D20DD56FF47873B3EB62527A
:100900000ED44FEAC12343F0004343EA505323FA85
:1009100002F070474FF00000704750EA013002D1FA
:100920004FF0FF3070474FF00000704780B483B045
:1009300000AF0346FB80084B1B6800225A6200BFD1
:10094000054B1B685A6AFB889A42F9D300BF00BF67
:100950000C37BD4680BC70475000002000000000EE
:1009600080B582B000AF78607B681B68904A934284
:1009700040F088807B681B7F012B40F083808D4B8B
:100980001B78002B1AD10021786802F099FA0346EF
:10099000894A1360874B01221A707B681B681A6AA8
:1009A0007B681B6822F00A021A627B681B681A6A5D
:1009B0007B681B6842F002021A6263E07D4B1B7881
:1009C000012B5FD10021786802F07AFA03467B4A56
:1009D00013607B681B6800225A62784B1A68764B5A
:1009E0001B689A4207D9754B1A68734B1B68D31A58
:1009F000734A13600FE0704B1A68704B1B689A4281
:100A000009D96E4B1A686C4B1B68D31A03F57F43E8
:100A1000FF336B4A13606A4B1B681846FFF7DAFC1A
:100A200061A3D3E90023FFF74FFD02460B461046B2
:100A300019464FF000024FF08043FFF76FFE024669
:100A40000B4610461946FFF751FF0346DAB25D4BDD
:100A50001A70584B00221A707B681B681A6A7B68F0
:100A60001B6822F00A021A627B681A687B681B689E
:100A7000126A1A62544B1B68DA68534B1B6822F0E7
:100A80000202DA607B681B68B3F1804F40F0888017
:100A90007B681B7F012B40F083804C4B1B78002B25
:100AA0001AD10021786802F00BFA0346484A136015
:100AB000464B01221A707B681B681A6A7B681B68A8
:100AC00022F00A021A627B681B681A6A7B681B683C
:100AD00042F002021A6263E03C4B1B78012B5FD1AB
:100AE0000021786802F0ECF903463A4A13607B680B
:100AF0001B6800225A62374B1A68354B1B689A42B2
:100B000007D9344B1A68324B1B68D31A324A136028
:100B10000FE02F4B1A682F4B1B689A4209D92D4BB7
:100B20001A682B4B1B68D31A03F57F43FF332A4AFD
:100B30001360294B1B681846FFF74CFC1AA3D3E936
:100B40000023FFF7C1FC02460B46104619464FF042
:100B500000024FF08043FFF7E1FD02460B461046CE
:100B60001946FFF7C3FE0346DAB21C4B1A70174B47
:100B700000221A707B681B681A6A7B681B6822F067
:100B80000A021A627B681A687B681B68126A1A621A
:100B9000134B1B68DA68124B1B6822F00202DA6002
:100BA00000BF0837BD4680BD9CC420B07268A13F1D
:100BB000002C0140EC000020E0000020E4000020B8
:100BC000E8000020ED00002050000020FC00002084
:100BD000F0000020F4000020F8000020FD000020BC
:100BE0009800002080B500AF01220221204801F0CA
:100BF0004FF90A20FFF79AFE002202211C4801F05B
:100C000047F91C4B1B68DA681A4B1B6842F002025A
:100C1000DA6000BF184B1B78002BFBD1174B1B78F9
:100C2000002BF7D03220FFF781FE01224FF4007134
:100C30000F4801F02DF90A20FFF778FE00224FF44B
:100C400000710B4801F024F90D4B1B68DA680C4B5E
:100C50001B6842F00202DA6000BF0A4B1B78002BCF
:100C6000FBD1094B1B78002BF7D000BF00BF80BD24
:100C70000008014050000020EC000020ED000020A2
:100C800098000020FC000020FD00002080B58AB004
:100C900000AF03460A46FB711346BB7103233B6159
:100CA0000023FB610023BB6102233B62002387F822
:100CB0002430FB793B73BB797B7307F1080307F1A1
:100CC0000C0207F11001064800F081FD0346002BDD
:100CD00001D000F043FA00BF2837BD4680BD00BFF9
:100CE0002800002080B582B000AF00F0ABFB00F020
:100CF00051F800F0AFF900F093F800F0C7F800F0F9
:100D000039F900211D4801F07BFD00211C4801F04C
:100D100077FD1C4800F017FDFFF764FF1A4B1B78A6
:100D20000E2B07D80123FB7101221021174801F077
:100D3000AFF806E00023FB7100221021134801F0F8
:100D4000A7F8134B1B780E2B07D80123BB71012288
:100D500002210E4801F09CF806E00023BB7100223E
:100D600002210A4801F094F8BA79FB791146184635
:100D7000FFF78CFF642000F0C7FBCDE75000002098
:100D80009800002028000020ED000020000C014009
:100D9000FD00002080B590B000AF07F118032822B5
:100DA0000021184602F09AFB3B1D00221A605A608F
:100DB0009A60DA601A610123BB614FF48033FB61F2
:100DC00000233B620123BB6202237B634FF4803329
:100DD000BB634FF4E013FB6307F11803184601F0FF
:100DE00089F80346002B01D000F0B8F90F237B608F
:100DF0000223BB600023FB604FF480633B61002350
:100E00007B613B1D0221184601F0F6FA0346002BD8
:100E100001D000F0A3F900BF4037BD4680BD0000FF
:100E200080B500AF174B184A1A60164B04225A605F
:100E3000144B00229A60134B0022DA60114B4FF4DE
:100E400060221A610F4B4FF480125A610D4B002241
:100E50001A760C4B00225A760A4B00229A76094BDE
:100E60000022DA76074B00221A77064B00225A77C7
:100E7000044800F06DFB0346002B01D000F06EF932
:100E800000BF80BD280000200064004080B58AB00B
:100E900000AF07F1180300221A605A609A60DA6006
:100EA00007F1100300221A605A603B4600221A60C4
:100EB0005A609A60DA602D4B2D4A1A602B4B4722FC
:100EC0005A602A4B00229A60284B4FF6FF72DA6074
:100ED000264B00221A61254B00225A61234B002227
:100EE0009A61224801F0E4FB0346002B01D000F098
:100EF00035F94FF48053BB6107F1180319461B48BD
:100F000001F016FF0346002B01D000F027F9174827
:100F100001F01DFC0346002B01D000F01FF9002357
:100F20003B6100237B6107F1100319460F4802F073
:100F300065FA0346002B01D000F010F900233B6056
:100F400001237B600023BB600023FB603B46002243
:100F50001946064801F050FE0346002B01D000F070
:100F6000FDF800BF2837BD4680BD00BF50000020FF
:100F7000002C014080B58AB000AF07F118030022B1
:100F80001A605A609A60DA6007F1100300221A6052
:100F90005A603B4600221A605A609A60DA602C4B15
:100FA0004FF080421A602A4B47225A60284B002299
:100FB0009A60274B4FF6FF72DA60254B00221A61C8
:100FC000234B00229A61224801F072FB0346002B5A
:100FD00001D000F0C3F84FF48053BB6107F1180350
:100FE00019461B4801F0A4FE0346002B01D000F077
:100FF000B5F8174801F0ABFB0346002B01D000F019
:10100000ADF800233B6100237B6107F11003194613
:101010000F4802F0F3F90346002B01D000F09EF8D0
:1010200000233B6001237B600023BB600023FB6047
:101030003B4600221946064801F0DEFD0346002B20
:1010400001D000F08BF800BF2837BD4680BD00BF3F
:101050009800002080B588B000AF07F1100300228F
:101060001A605A609A60DA60384B9B69374A43F0DD
:1010700010039361354B9B6903F01003FB60FB6821
:10108000324B9B69314A43F0200393612F4B9B699C
:1010900003F02003BB60BB682C4B9B692B4A43F0D9
:1010A00004039361294B9B6903F004037B607B6815
:1010B000264B9B69254A43F008039361234B9B69A8
:1010C00003F008033B603B6800224FF400512048C6
:1010D00000F0DEFE002240F202211E4800F0D8FEA1
:1010E000002212211C4800F0D3FE4FF400533B6154
:1010F00001237B610123BB610223FB6107F1100324
:101100001946134800F040FD40F202233B610123E1
:101110007B610023BB610223FB6107F110031946C9
:101120000C4800F031FD12233B6101237B61012358
:10113000BB610223FB6107F110031946064800F06A
:1011400023FD00BF2037BD4680BD00BF0010024018
:101150000010014000080140000C014080B500AFC4
:1011600072B600BF4FF40051034800F0A9FE64209E
:1011700000F0CAF900BFF5E70010014080B485B067
:1011800000AF154B9B69144A43F001039361124B66
:101190009B6903F00103BB60BB680F4BDB690E4A20
:1011A00043F08053D3610C4BDB6903F080537B60C9
:1011B0007B680A4B5B68FB60FB6823F0E063FB60C5
:1011C000FB6843F00073FB60044AFB68536000BF98
:1011D0001437BD4680BC704700100240000001403B
:1011E00080B588B000AF786007F1100300221A6064
:1011F0005A609A60DA607B681B681C4A934231D15E
:101200001B4BDB691A4A43F00073D361184BDB694F
:1012100003F00073FB60FB68154B9B69144A43F0B5
:1012200004039361124B9B6903F00403BB60BB682A
:101230004FF400633B6100237B610123BB6107F135
:10124000100319460B4800F09FFC4FF480533B619C
:1012500002237B610323FB6107F110031946054854
:1012600000F092FC00BF2037BD4680BD0064004006
:10127000001002400008014080B58AB000AF7860DD
:1012800007F1180300221A605A609A60DA607B68DE
:101290001B68334A93422DD1324B9B69314A43F448
:1012A000006393612F4B9B6903F400637B617B694F
:1012B0002C4B9B692B4A43F004039361294B9B6998
:1012C00003F004033B613B694FF48073BB6100236F
:1012D000FB6100233B6207F118031946224800F026
:1012E00053FC002200211B2000F017FC1B2000F003
:1012F00030FC30E07B681B68B3F1804F2BD1194B79
:10130000DB69184A43F00103D361164BDB6903F034
:101310000103FB60FB68134B9B69124A43F0040313
:101320009361104B9B6903F00403BB60BB6801230E
:10133000BB610023FB6100233B6207F118031946E0
:10134000094800F021FC002200211C2000F0E5FBF0
:101350001C2000F0FEFB00BF2837BD4680BD00BF4B
:10136000002C0140001002400008014080B400AF92
:1013700000BFFDE780B400AF00BFFDE780B400AF61
:1013800000BFFDE780B400AF00BFFDE780B400AF51
:1013900000BFFDE780B400AF00BFBD4680BC704712
:1013A00080B400AF00BFBD4680BC704780B400AFC2
:1013B00000BFBD4680BC704780B500AF00F088F824
:1013C00000BF80BD80B500AF024801F025FB00BF23
:1013D00080BD00BF5000002080B500AF024801F082
:1013E0001BFB00BF80BD00BF9800002080B400AF91
:1013F00000BFBD4680BC7047FFF7F8FF0B480C49A3
:101400000C4A002302E0D458C4500433C4188C4260
:10141000F9D3094A094C002301E013600432A242C7
:10142000FBD302F063F8FFF75DFC7047000000207B
:101430000C000020783500080C000020040100207A
:10144000FEE7000080B500AF084B1B68074A43F079
:1014500010031360032000F055FB0F2000F008F884
:10146000FFF78CFE0023184680BD00BF002002401D
:1014700080B582B000AF7860124B1A68124B1B78AF
:1014800019464FF47A73B3FBF1F3B2FBF3F318464A
:1014900000F06DFB0346002B01D001230EE07B68BA
:1014A0000F2B0AD8002279684FF0FF3000F035FB8F
:1014B000064A7B681360002300E0012318460837C2
:1014C000BD4680BD00000020080000200400002070
:1014D00080B400AF054B1B781A46054B1B681344BC
:1014E000034A136000BFBD4680BC7047080000205F
:1014F0000001002080B400AF024B1B681846BD46B7
:1015000080BC70470001002080B584B000AF7860D7
:10151000FFF7F0FFB8607B68FB60FB68B3F1FF3F4B
:1015200005D00A4B1B781A46FB681344FB6000BFCA
:10153000FFF7E0FF0246BB68D31AFA689A42F7D871
:1015400000BF00BF1037BD4680BD00BF08000020AF
:1015500080B584B000AF78607B68002B01D1012397
:10156000EDE07B6893F82030DBB2002B02D1786885
:10157000FFF736FE7B681B681A687B681B6842F0C1
:1015800001021A60FFF7B6FFF86012E0FFF7B2FF42
:101590000246FB68D31A0A2B0BD97B685B6A43F4BB
:1015A00000327B685A627B68052283F82020012381
:1015B000C5E07B681B685B6803F00103002BE5D086
:1015C0007B681B681A687B681B6822F002021A603D
:1015D000FFF790FFF86012E0FFF78CFF0246FB6810
:1015E000D31A0A2B0BD97B685B6A43F400327B6801
:1015F0005A627B68052283F8202001239FE07B68E4
:101600001B685B6803F00203002BE5D17B681B7E3F
:10161000012B08D17B681B681A687B681B6842F045
:1016200080021A6007E07B681B681A687B681B6889
:1016300022F080021A607B685B7E012B08D17B68F8
:101640001B681A687B681B6842F040021A6007E05A
:101650007B681B681A687B681B6822F040021A606E
:101660007B689B7E012B08D17B681B681A687B68AE
:101670001B6842F020021A6007E07B681B681A684A
:101680007B681B6822F020021A607B68DB7E012BDE
:1016900008D17B681B681A687B681B6822F01002FF
:1016A0001A6007E07B681B681A687B681B6842F059
:1016B00010021A607B681B7F012B08D17B681B68B6
:1016C0001A687B681B6842F008021A6007E07B68B2
:1016D0001B681A687B681B6822F008021A607B6826
:1016E0005B7F012B08D17B681B681A687B681B68CD
:1016F00042F004021A6007E07B681B681A687B6886
:101700001B6822F004021A607B689A687B68DB68B9
:101710001A437B681B691A437B685B6942EA0301D1
:101720007B685B685A1E7B681B680A43DA617B68CA
:1017300000225A627B68012283F820200023184689
:101740001037BD4680BD80B584B000AF78607B683F
:1017500093F82030DBB2012B2ED17B68022283F874
:1017600020207B681B681A687B681B6822F00102D6
:101770001A60FFF7BFFEF86012E0FFF7BBFE0246FB
:10178000FB68D31A0A2B0BD97B685B6A43F40032DF
:101790007B685A627B68052283F82020012312E0CF
:1017A0007B681B685B6803F00103002BE5D17B6855
:1017B00000225A62002306E07B685B6A43F4002241
:1017C0007B685A62012318461037BD4680BD80B43D
:1017D00089B000AFF860B9607A603B60FB6893F84D
:1017E0002030FB77FB681B689B68BB61FB7F012B8C
:1017F00003D0FB7F022B40F0AD80BB6903F0806318
:10180000002B0AD1BB6903F00063002B05D1BB6933
:1018100003F08053002B00F09580BB691B0E03F092
:1018200003037B6101227B699A403B681A60BB68B5
:101830009B68002B0DD1BB681B685A05BB68DB6831
:10184000F96809681A437B6918331B010B441A6055
:101850000FE0BB685B68DA00BB689B681A43BB6833
:10186000DB68F96809681A437B6918331B010B446C
:101870001A60FB681968BB681A697B6918331B0119
:101880000B4404331A60BB681B7D012B11D1FB682C
:101890001A687B6918331B01134404331B68FA6808
:1018A000116843F480727B6918331B010B440433C5
:1018B0001A607B6807331B781A067B6806331B782F
:1018C0001B041A437B6805331B781B0213437A6899
:1018D000043212781046FA68116843EA00027B6904
:1018E0001B010B4403F5C6731A607B6803331B7836
:1018F0001A067B6802331B781B041A437B6801338A
:101900001B781B0213437A6812781046FA68116834
:1019100043EA00027B691B010B4403F5C4731A60A0
:10192000FB681A687B6918331B0113441B68FA684B
:10193000116843F001027B6918331B010B441A60E4
:1019400000230EE0FB685B6A43F40012FB685A62F6
:10195000012306E0FB685B6A43F48022FB685A625D
:10196000012318462437BD4680BC704780B485B03B
:1019700000AF78607B6803F00703FB600C4BDB680B
:10198000BB60BA684FF6FF031340BB60FB681A02E6
:10199000BB68134343F0BF6343F40033BB60044AA6
:1019A000BB68D36000BF1437BD4680BC704700BF22
:1019B00000ED00E080B400AF044BDB681B0A03F0CD
:1019C00007031846BD4680BC704700BF00ED00E02D
:1019D00080B483B000AF0346FB7197F90730002B4A
:1019E0000BDBFB7903F01F02064997F907305B090F
:1019F000012000FA02F241F8232000BF0C37BD4657
:101A000080BC704700E100E080B483B000AF0346C3
:101A10003960FB7197F90730002B0ADB3B68DAB2BB
:101A20000C4997F907301201D2B20B4483F8002316
:101A30000AE03B68DAB20849FB7903F00F03043B84
:101A40001201D2B20B441A7600BF0C37BD4680BCDF
:101A5000704700BF00E100E000ED00E080B489B015
:101A600000AFF860B9607A60FB6803F00703FB61C0
:101A7000FB69C3F10703042B28BF0423BB61FB6987
:101A80000433062B02D9FB69033B00E000237B6192
:101A90004FF0FF32BB6902FA03F3DA43BB681A4026
:101AA0007B699A404FF0FF317B6901FA03F3D94318
:101AB0007B680B40134318462437BD4680BC7047F3
:101AC00080B582B000AF78607B68013BB3F1807F66
:101AD00001D301230FE00A4A7B68013B53600F21C9
:101AE0004FF0FF30FFF790FF054B00229A60044B48
:101AF00007221A60002318460837BD4680BD00BF84
:101B000010E000E080B582B000AF78607868FFF741
:101B10002DFF00BF0837BD4680BD80B586B000AF41
:101B20000346B9607A60FB7300237B61FFF742FFD5
:101B300078617A68B9687869FFF790FF024697F98B
:101B40000F3011461846FFF75FFF00BF1837BD463C
:101B500080BD80B582B000AF0346FB7197F90730B6
:101B60001846FFF735FF00BF0837BD4680BD80B57A
:101B700082B000AF78607868FFF7A2FF034618468E
:101B80000837BD4680BD000080B48BB000AF7860E0
:101B9000396000237B6200233B6269E101227B6A9A
:101BA00002FA03F3FB613B681B68FA691340BB61EF
:101BB000BA69FB699A4240F058813B685B689A4A6F
:101BC00093425ED0984A934275D8984A934258D02F
:101BD000964A93426FD8964A934252D0944A93427F
:101BE00069D8944A93424CD0924A934263D8924A1D
:101BF000934246D0904A93425DD8122B2AD8122B9A
:101C000059D801A252F823F0831C00085D1C00087B
:101C10006F1C0008B11C0008B71C0008B71C0008A6
:101C2000B71C0008B71C0008B71C0008B71C000848
:101C3000B71C0008B71C0008B71C0008B71C000838
:101C4000B71C0008B71C0008B71C0008651C00087A
:101C5000791C0008794A934213D02CE03B68DB687A
:101C60003B6229E03B68DB6804333B6224E03B686D
:101C7000DB6808333B621FE03B68DB680C333B6288
:101C80001AE03B689B68002B02D104233B6213E0FF
:101C90003B689B68012B05D108233B627B68FA698E
:101CA0001A6109E008233B627B68FA695A6103E024
:101CB00000233B6200E000BFBB69FF2B01D87B68BB
:101CC00001E07B6804337B61BB69FF2B02D87B6A30
:101CD0009B0002E07B6A083B9B003B617B691A68C2
:101CE0000F213B6901FA03F3DB431A40396A3B6970
:101CF00001FA03F31A437B691A603B685B6803F0DF
:101D00008053002B00F0B1804D4B9B694C4A43F04F
:101D1000010393614A4B9B6903F00103BB60BB68FD
:101D2000484A7B6A9B08023352F82330FB607B6A87
:101D300003F003039B000F2202FA03F3DB43FA686C
:101D40001340FB607B68404A934213D07B683F4A54
:101D500093420DD07B683E4A934207D07B683D4A50
:101D6000934201D1032306E0042304E0022302E0AE
:101D7000012300E000237A6A02F0030292009340FC
:101D8000FA681343FB602F497B6A9B080233FA68A9
:101D900041F823203B685B6803F48013002B06D0D6
:101DA0002D4B9A682C49BB6913438B6006E02A4B84
:101DB0009A68BB69DB43284913408B603B685B68CA
:101DC00003F40013002B06D0234BDA682249BB69C9
:101DD0001343CB6006E0204BDA68BB69DB431E4946
:101DE0001340CB603B685B6803F40033002B06D0E4
:101DF000194B5A681849BB6913434B6006E0164BF0
:101E00005A68BB69DB43144913404B603B685B680D
:101E100003F48033002B21D00F4B1A680E49BB69A5
:101E200013430B6021E000BF0000321000003110AE
:101E300000002210000021100000121000001110FC
:101E4000001002400000014000080140000C014069
:101E50000010014000140140000401400B4B1A68BF
:101E6000BB69DB43094913400B607B6A01337B622A
:101E70003B681A687B6A22FA03F3002B7FF48EAE6C
:101E800000BF00BF2C37BD4680BC70470004014036
:101E900080B483B000AF78600B467B8013467B70C4
:101EA0007B78002B03D07A887B681A6103E07B88FB
:101EB0001A047B681A6100BF0C37BD4680BC7047AE
:101EC00080B485B000AF78600B467B807B68DB68B0
:101ED000FB607A88FB6813401A04FB68D9437B884F
:101EE0000B401A437B681A6100BF1437BD4680BCA3
:101EF0007047000080B586B000AF78607B68002B2B
:101F000001D1012372E27B681B6803F00103002BFF
:101F100000F08780924B5B6803F00C03042B0CD01D
:101F20008F4B5B6803F00C03082B12D18C4B5B6862
:101F300003F48033B3F5803F0BD1894B1B6803F466
:101F40000033002B6CD07B685B68002B68D10123C9
:101F50004CE27B685B68B3F5803F06D1804B1B6821
:101F60007F4A43F4803313602EE07B685B68002B6C
:101F70000CD17B4B1B687A4A23F480331360784B77
:101F80001B68774A23F4802313601DE07B685B683D
:101F9000B3F5A02F0CD1724B1B68714A43F4802318
:101FA00013606F4B1B686E4A43F4803313600BE081
:101FB0006B4B1B686A4A23F480331360684B1B68C1
:101FC000674A23F4802313607B685B68002B13D07F
:101FD000FFF790FA386108E0FFF78CFA02463B6998
:101FE000D31A642B01D9032300E25D4B1B6803F471
:101FF0000033002BF0D014E0FFF77CFA386108E0E2
:10200000FFF778FA02463B69D31A642B01D9032300
:10201000ECE1534B1B6803F40033002BF0D100E0DC
:1020200000BF7B681B6803F00203002B63D04C4B9E
:102030005B6803F00C03002B0BD0494B5B6803F08B
:102040000C03082B1CD1464B5B6803F48033002B38
:1020500016D1434B1B6803F00203002B05D07B68AD
:102060001B69012B01D00123C0E13D4B1B6823F00C
:10207000F8027B685B69DB00394913430B603AE087
:102080007B681B69002B20D0364B01221A60FFF7BA
:1020900031FA386108E0FFF72DFA02463B69D31A9E
:1020A000022B01D90323A1E12D4B1B6803F002038E
:1020B000002BF0D02A4B1B6823F0F8027B685B6989
:1020C000DB00274913430B6015E0264B00221A6002
:1020D000FFF710FA386108E0FFF70CFA02463B6997
:1020E000D31A022B01D9032380E11D4B1B6803F097
:1020F0000203002BF0D17B681B6803F00803002B60
:102100003AD07B689B69002B19D0174B01221A60CB
:10211000FFF7F0F9386108E0FFF7ECF902463B6998
:10212000D31A022B01D9032360E10D4B5B6A03F044
:102130000203002BF0D0012000F09CFA1CE00A4BB7
:1021400000221A60FFF7D6F938610FE0FFF7D2F9E5
:1021500002463B69D31A022B08D9032346E100BF8C
:10216000001002400000424280044242924B5B6AEF
:1021700003F00203002BE9D17B681B6803F0040322
:10218000002B00F0A6800023FB758B4BDB6903F06E
:102190008053002B0DD1884BDB69874A43F0805375
:1021A000D361854BDB6903F08053BB60BB680123BF
:1021B000FB75824B1B6803F48073002B18D17F4B97
:1021C0001B687E4A43F480731360FFF793F938610C
:1021D00008E0FFF78FF902463B69D31A642B01D957
:1021E000032303E1754B1B6803F48073002BF0D0CD
:1021F0007B68DB68012B06D16F4B1B6A6E4A43F08C
:10220000010313622DE07B68DB68002B0CD16A4B65
:102210001B6A694A23F001031362674B1B6A664A13
:1022200023F0040313621CE07B68DB68052B0CD1F0
:10223000614B1B6A604A43F0040313625E4B1B6AE6
:102240005D4A43F0010313620BE05B4B1B6A5A4A81
:1022500023F001031362584B1B6A574A23F004030F
:1022600013627B68DB68002B15D0FFF743F93861F8
:102270000AE0FFF73FF902463B69D31A41F2883280
:10228000934201D90323B1E04B4B1B6A03F00203D5
:10229000002BEED014E0FFF72DF938610AE0FFF7CC
:1022A00029F902463B69D31A41F28832934201D997
:1022B00003239BE0404B1B6A03F00203002BEED18B
:1022C000FB7D012B05D13C4BDB693B4A23F080535E
:1022D000D3617B68DB69002B00F08780364B5B683D
:1022E00003F00C03082B61D07B68DB69022B46D11D
:1022F000334B00221A60FFF7FDF8386108E0FFF762
:10230000F9F802463B69D31A022B01D903236DE089
:10231000294B1B6803F00073002BF0D17B681B6A0C
:10232000B3F5803F08D1244B5B6823F400327B680F
:102330009B68214913434B601F4B5B6823F4741265
:102340007B68196A7B685B6A0B431B4913434B60CC
:102350001B4B01221A60FFF7CDF8386108E0FFF748
:10236000C9F802463B69D31A022B01D903233DE089
:10237000114B1B6803F00073002BF0D035E0104BBD
:1023800000221A60FFF7B6F8386108E0FFF7B2F8EC
:1023900002463B69D31A022B01D9032326E0064BE0
:1023A0001B6803F00073002BF0D11EE07B68DB6933
:1023B000012B07D1012319E00010024000700040FA
:1023C000600042420B4B5B68FB60FB6803F48032A9
:1023D0007B681B6A9A4206D1FB6803F470127B6823
:1023E0005B6A9A4201D0012300E0002318461837A7
:1023F000BD4680BD0010024080B584B000AF78605B
:1024000039607B68002B01D10123D0E06A4B1B6847
:1024100003F007033A689A4210D9674B1B6823F010
:10242000070265493B6813430B60634B1B6803F06D
:1024300007033A689A4201D00123B8E07B681B6821
:1024400003F00203002B20D07B681B6803F0040319
:10245000002B05D0594B5B68584A43F4E063536046
:102460007B681B6803F00803002B05D0534B5B68A7
:10247000524A43F460535360504B5B6823F0F002C0
:102480007B689B684D4913434B607B681B6803F076
:102490000103002B40D07B685B68012B07D1474BC1
:1024A0001B6803F40033002B15D101237FE07B6808
:1024B0005B68022B07D1414B1B6803F00073002BB4
:1024C00009D1012373E03D4B1B6803F00203002B8D
:1024D00001D101236BE0394B5B6823F003027B6879
:1024E0005B68364913434B60FFF704F8F8600AE075
:1024F000FFF700F80246FB68D31A41F28832934294
:1025000001D9032353E02D4B5B6803F00C027B6879
:102510005B689B009A42EBD1274B1B6803F00703D3
:102520003A689A4210D2244B1B6823F007022249D2
:102530003B6813430B60204B1B6803F007033A68AA
:102540009A4201D0012332E07B681B6803F0040348
:10255000002B08D0194B5B6823F4E0627B68DB68D2
:10256000164913434B607B681B6803F00803002B7C
:1025700009D0124B5B6823F460527B681B69DB0057
:102580000E4913434B6000F021F802460B4B5B6889
:102590001B0903F00F030A49CB5C22FA03F3094A33
:1025A0001360094B1B681846FEF762FF00231846AC
:1025B0001037BD4680BD00BF002002400010024021
:1025C0004C350008000000200400002080B487B0D3
:1025D00000AF0023FB600023BB6000237B6100236E
:1025E0007B6000233B611E4B5B68FB60FB6803F074
:1025F0000C03042B02D0082B03D027E0194B3B61BE
:1026000027E0FB689B0C03F00F03174AD35C7B6049
:10261000FB6803F48033002B10D0114B5B685B0C1C
:1026200003F00103114AD35CBB607B680D4A03FBD6
:1026300002F2BB68B2FBF3F37B6104E07B680C4AF7
:1026400002FB03F37B617B693B6102E0054B3B616D
:1026500000BF3B6918461C37BD4680BC704700BFB1
:102660000010024000127A005C3500086C3500084A
:1026700000093D0080B485B000AF78600A4B1B684C
:102680000A4AA2FB03235B0A7A6802FB03F3FB609E
:1026900000BFFB685A1EFA60002BF9D100BF00BFD3
:1026A0001437BD4680BC704700000020D34D621037
:1026B00080B582B000AF78607B68002B01D1012328
:1026C00041E07B6893F83D30DBB2002B06D17B689C
:1026D000002283F83C207868FEF7CEFD7B6802225A
:1026E00083F83D207B681A687B68043319461046DE
:1026F00000F04EFC7B68012283F846207B680122B3
:1027000083F83E207B68012283F83F207B6801220A
:1027100083F840207B68012283F841207B680122F6
:1027200083F842207B68012283F843207B680122E2
:1027300083F844207B68012283F845207B680122CE
:1027400083F83D20002318460837BD4680BD80B57C
:1027500082B000AF78607B68002B01D1012341E09B
:102760007B6893F83D30DBB2002B06D17B680022FA
:1027700083F83C20786800F039F87B68022283F8FF
:102780003D207B681A687B6804331946104600F0C8
:10279000FFFB7B68012283F846207B68012283F8D7
:1027A0003E207B68012283F83F207B68012283F86A
:1027B00040207B68012283F841207B68012283F856
:1027C00042207B68012283F843207B68012283F842
:1027D00044207B68012283F845207B68012283F82E
:1027E0003D20002318460837BD4680BD80B483B025
:1027F00000AF786000BF0C37BD4680BC704700005A
:1028000080B584B000AF786039600023FB733B680B
:10281000002B04D17B6893F83E30DBB213E03B68B9
:10282000042B04D17B6893F83F30DBB20BE03B68AC
:10283000082B04D17B6893F84030DBB203E07B685F
:1028400093F84130DBB2BB733B68002B04D17B684B
:1028500093F84230DBB213E03B68042B04D17B6871
:1028600093F84330DBB20BE03B68082B04D17B6864
:1028700093F84430DBB203E07B6893F84530DBB279
:102880007B73BB7B012B02D17B7B012B01D001230E
:10289000B8E03B68002B04D17B68022283F83E201D
:1028A00013E03B68042B04D17B68022283F83F20AD
:1028B0000BE03B68082B04D17B68022283F84020A0
:1028C00003E07B68022283F841203B68002B04D19F
:1028D0007B68022283F8422013E03B68042B04D17A
:1028E0007B68022283F843200BE03B68082B04D16D
:1028F0007B68022283F8442003E07B68022283F88D
:1029000045203B680C2B41D801A252F823F000BFB0
:10291000452900088D2900088D2900088D29000807
:10292000572900088D2900088D2900088D290008E5
:10293000692900088D2900088D2900088D290008C3
:102940007B2900087B681B68DA687B681B6842F09B
:102950000202DA601DE07B681B68DA687B681B682E
:1029600042F00402DA6014E07B681B68DA687B6876
:102970001B6842F00802DA600BE07B681B68DA68CB
:102980007B681B6842F01002DA6002E00123FB73EF
:1029900000BFFB7B002B34D17B681B6801223968A8
:1029A000184600F006FD7B681B68184A93420ED05B
:1029B0007B681B68B3F1804F09D07B681B68144AA1
:1029C000934204D07B681B68124A934211D17B6802
:1029D0001B689B6803F00703BB60BB68062B10D025
:1029E0007B681B681A687B681B6842F001021A60EA
:1029F00007E07B681B681A687B681B6842F001026D
:102A00001A60FB7B18461037BD4680BD002C014084
:102A1000000400400008004080B584B000AF78603A
:102A20007B681B68DB68FB607B681B681B69BB609D
:102A3000BB6803F00203002B20D0FB6803F0020305
:102A4000002B1BD07B681B686FF002021A617B6849
:102A500001221A777B681B689B6903F00303002B34
:102A600003D07868FDF77CFF05E0786800F075FA20
:102A7000786800F07BFA7B6800221A77BB6803F065
:102A80000403002B20D0FB6803F00403002B1BD0B1
:102A90007B681B686FF004021A617B6802221A7758
:102AA0007B681B689B6903F44073002B03D0786834
:102AB000FDF756FF05E0786800F04FFA786800F0FF
:102AC00055FA7B6800221A77BB6803F00803002BD5
:102AD00020D0FB6803F00803002B1BD07B681B6829
:102AE0006FF008021A617B6804221A777B681B6802
:102AF000DB6903F00303002B03D07868FDF730FF98
:102B000005E0786800F029FA786800F02FFA7B6811
:102B100000221A77BB6803F01003002B20D0FB685B
:102B200003F01003002B1BD07B681B686FF01002B2
:102B30001A617B6808221A777B681B68DB6903F4DB
:102B40004073002B03D07868FDF70AFF05E0786832
:102B500000F003FA786800F009FA7B6800221A771F
:102B6000BB6803F00103002B0CD0FB6803F00103EA
:102B7000002B07D07B681B686FF001021A61786830
:102B800000F0E2F9BB6803F08003002B0CD0FB6877
:102B900003F08003002B07D07B681B686FF0800276
:102BA0001A61786800F091FCBB6803F04003002BC9
:102BB0000CD0FB6803F04003002B07D07B681B6838
:102BC0006FF040021A61786800F0D9F9BB6803F031
:102BD0002003002B0CD0FB6803F02003002B07D050
:102BE0007B681B686FF020021A61786800F064FC53
:102BF00000BF1037BD4680BD80B586B000AFF8601D
:102C0000B9607A600023FB75FB6893F83C30012BB8
:102C100001D1022388E0FB68012283F83C207B6815
:102C2000002B1BD1FB681868BB681968BB685A6821
:102C3000BB68DB6800F01AFAFB681B689A69FB68DE
:102C40001B6822F00C029A61FB681B689969BB68DB
:102C50009A68FB681B680A439A6160E07B68042BF2
:102C60001CD1FB681868BB681968BB685A68BB68E8
:102C7000DB6800F083FAFB681B689A69FB681B68D5
:102C800022F440629A61FB681B689969BB689B6883
:102C90001A02FB681B680A439A6140E07B68082BB4
:102CA0001BD1FB681868BB681968BB685A68BB68A9
:102CB000DB6800F0CEFAFB681B68DA69FB681B680A
:102CC00022F00C02DA61FB681B68D969BB689A685C
:102CD000FB681B680A43DA6121E07B680C2B1CD17E
:102CE000FB681868BB681968BB685A68BB68DB6812
:102CF00000F0EAFAFB681B68DA69FB681B6822F4DB
:102D00004062DA61FB681B68D969BB689B681A027C
:102D1000FB681B680A43DA6101E00123FB75FB686D
:102D2000002283F83C20FB7D18461837BD4680BD45
:102D300080B584B000AF786039600023FB737B6896
:102D400093F83C30012B01D10223B4E07B680122CF
:102D500083F83C207B68022283F83D207B681B6857
:102D60009B68BB60BB6823F07703BB60BB6823F440
:102D70007F43BB607B681B68BA689A603B681B68CE
:102D8000B3F5005F3ED0B3F5005F00F28780B3F586
:102D9000805F00F08680B3F5805F7FD8702B1AD0FB
:102DA000702B7BD8602B50D0602B77D8502B3CD029
:102DB000502B73D8402B58D0402B6FD8302B64D079
:102DC000302B6BD8202B60D0202B67D8002B5CD009
:102DD000102B5AD062E07B6818683B6899683B68A2
:102DE0005A683B68DB6800F0C5FA7B681B689B6823
:102DF000BB60BB6843F07703BB607B681B68BA6845
:102E00009A604FE07B6818683B6899683B685A682D
:102E10003B68DB6800F0AEFA7B681B689A687B68E9
:102E20001B6842F480429A603CE07B6818683B680B
:102E300059683B68DB681A4600F072F97B681B68CA
:102E40005021184600F07CFA2CE07B6818683B683B
:102E500059683B68DB681A4600F0CCF97B681B6850
:102E60006021184600F06CFA1CE07B6818683B682B
:102E700059683B68DB681A4600F052F97B681B68AA
:102E80004021184600F05CFA0CE07B681A683B6849
:102E90001B681946104600F053FA03E00123FB7348
:102EA00000E000BF7B68012283F83D207B680022A0
:102EB00083F83C20FB7B18461037BD4680BD0000E0
:102EC00080B485B000AF786039600023FB603B6858
:102ED0000C2B31D801A252F823F000BF112F0008AB
:102EE000392F0008392F0008392F00081B2F000840
:102EF000392F0008392F0008392F0008252F000826
:102F0000392F0008392F0008392F00082F2F00080B
:102F10007B681B685B6BFB600FE07B681B689B6BCF
:102F2000FB600AE07B681B68DB6BFB6005E07B688D
:102F30001B681B6CFB6000E000BFFB681846143781
:102F4000BD4680BC704700BF80B483B000AF7860DE
:102F500000BF0C37BD4680BC704780B483B000AF63
:102F6000786000BF0C37BD4680BC704780B483B02A
:102F700000AF786000BF0C37BD4680BC704780B49E
:102F800083B000AF786000BF0C37BD4680BC70478F
:102F900080B485B000AF786039607B681B68FB60E7
:102FA0007B682F4A93420BD07B68B3F1804F07D0E8
:102FB0007B682C4A934203D07B682B4A934208D10A
:102FC000FB6823F07003FB603B685B68FA6813439F
:102FD000FB607B68224A93420BD07B68B3F1804F41
:102FE00007D07B681F4A934203D07B681E4A9342F6
:102FF00008D1FB6823F44073FB603B68DB68FA6828
:103000001343FB60FB6823F080023B685B6913435A
:10301000FB607B68FA681A603B689A687B68DA62D2
:103020003B681A687B689A627B680D4A934203D1B9
:103030003B681A697B681A637B6801225A617B6866
:103040001B6903F00103002B05D07B681B6923F08B
:1030500001027B681A6100BF1437BD4680BC70470F
:10306000002C0140000400400008004080B487B0FC
:1030700000AFF860B9607A603B60FB681B6A3B6137
:10308000FB681B6A23F00102FB681A62FB689B69FC
:103090007B61FB681F4A93420BD0FB68B3F1804F02
:1030A00007D0FB681C4A934203D0FB681B4A93423B
:1030B00001D1012300E00023002B08D07B6923F01D
:1030C00003037B617A697B6813437B6103E07B695F
:1030D00043F001037B617B6923F0F0037B613B6874
:1030E0001B01DBB27A6913437B613B6923F00A035E
:1030F0003B61BB6803F00A033A6913433B61FB6819
:103100007A699A61FB683A691A6200BF1C37BD464A
:1031100080BC7047002C01400004004000080040C3
:1031200080B487B000AFF860B9607A60FB681B6A52
:103130007B61FB681B6A23F00102FB681A62FB6873
:103140009B693B613B6923F0F0033B617B681B019A
:103150003A6913433B617B6923F00A037B617A6917
:10316000BB6813437B61FB683A699A61FB687A69C3
:103170001A6200BF1C37BD4680BC704780B487B060
:1031800000AFF860B9607A603B60FB681B6A7B61E6
:10319000FB681B6A23F01002FB681A62FB689B69DC
:1031A0003B613B6923F440733B617B681B023A69D6
:1031B00013433B613B6923F470433B613B681B0352
:1031C0009BB23A6913433B617B6923F0A0037B61A7
:1031D000BB681B0103F0A0037A6913437B61FB68A2
:1031E0003A699A61FB687A691A6200BF1C37BD466A
:1031F00080BC704780B487B000AFF860B9607A6077
:10320000FB681B6A7B61FB681B6A23F01002FB688A
:103210001A62FB689B693B613B6923F470433B6125
:103220007B681B033A6913433B617B6923F0A0036E
:103230007B61BB681B017A6913437B61FB683A6958
:103240009A61FB687A691A6200BF1C37BD4680BC70
:10325000704780B487B000AFF860B9607A603B60B7
:10326000FB681B6A7B61FB681B6A23F48072FB6846
:103270001A62FB68DB693B613B6923F003033B6136
:103280003A697B6813433B613B6923F0F0033B6180
:103290003B681B01DBB23A6913433B617B6923F452
:1032A00000737B61BB681B0203F400737A691343EC
:1032B0007B61FB683A69DA61FB687A691A6200BF70
:1032C0001C37BD4680BC704780B487B000AFF86043
:1032D000B9607A603B60FB681B6A7B61FB681B6AB4
:1032E00023F48052FB681A62FB68DB693B613B692F
:1032F00023F440733B617B681B023A6913433B61D3
:103300003B6923F470433B613B681B039BB23A6902
:1033100013433B617B6923F400537B61BB681B0350
:1033200003F400537A6913437B61FB683A69DA61FD
:10333000FB687A691A6200BF1C37BD4680BC7047C3
:1033400080B485B000AF786039607B689B68FB60B3
:10335000FB6823F07003FB603A68FB68134343F09B
:103360000703FB607B68FA689A6000BF1437BD46AC
:1033700080BC704780B487B000AFF860B9607A60F5
:103380003B60FB689B687B617B6923F47F437B61C7
:103390003B681A027B681A43BB6813437A6913437C
:1033A0007B61FB687A699A6000BF1C37BD4680BCB0
:1033B000704780B487B000AFF860B9607A60BB68CE
:1033C00003F01F03012202FA03F37B61FB681A6A10
:1033D0007B69DB431A40FB681A62FB681A6ABB68A8
:1033E00003F01F03796801FA03F31A43FB681A62BA
:1033F00000BF1C37BD4680BC7047000080B485B05C
:1034000000AF786039607B6893F83C30012B01D1C4
:10341000022346E07B68012283F83C207B6802227D
:1034200083F83D207B681B685B68FB607B681B68DA
:103430009B68BB60FB6823F07003FB603B681B6804
:10344000FA681343FB607B681B68FA685A607B6804
:103450001B68164A93420ED07B681B68B3F1804FFD
:1034600009D07B681B68124A934204D07B681B68B2
:10347000104A93420CD1BB6823F08003BB603B68C9
:103480005B68BA681343BB607B681B68BA689A6064
:103490007B68012283F83D207B68002283F83C2072
:1034A000002318461437BD4680BC7047002C0140ED
:1034B000000400400008004080B483B000AF786092
:1034C00000BF0C37BD4680BC704780B483B000AFEE
:1034D000786000BF0C37BD4680BC7047034602448D
:1034E000934200D1704703F8011BF9E770B500263D
:1034F0000C4D0D4C641BA410A64209D100F01AF823
:1035000000260A4D0A4C641BA410A64205D170BDCA
:1035100055F8043B98470136EEE755F8043B9847C9
:103520000136F2E770350008703500087035000884
:1035300074350008F8B500BFF8BC08BC9E4670475B
:0C354000F8B500BFF8BC08BC9E46704700
:10354C000000000000000000010203040607080947
:10355C0002030405060708090A0B0C0D0E0F1010C8
:04356C000102000058
:043570003501000819
:043574001101000839
:0C35780000127A001000000001000000AA
:04000005080013F9E3
:00000001FF
